:020000040800F2
:1000000000000120050300080B030008110300088D
:1000100033030008390300085B03000800000000F8
:100020000000000000000000000000007D03000848
:100030008303000800000000890300088F03000804
:10004000AD030008AD030008AD030008AD030008D0
:10005000AD030008AD030008AD030008AD030008C0
:10006000AD030008AD030008AD030008AD030008B0
:10007000AD030008AD030008AD030008AD030008A0
:10008000AD030008AD030008AD0300080000000048
:10009000000000000000000000000000AD030008A8
:1000A000AD030008AD030008AD030008AD03000870
:1000B000AD030008AD030008AD030008AD03000860
:1000C000AD030008AD030008AD030008AD03000850
:1000D000AD030008AD030008AD03000800000000F8
:1000E000AD030008AD030008AD03000800000000E8
:1000F000000000000000000000000000AD03000848
:1001000000000000AD030008AD030008AD030008C7
:1001100000000000000000000000000000000000DF
:10012000AD030008AD030008AD030008AD030008EF
:10013000AD03000800000000000000000000000007
:10014000000000000000000000000000AD030008F7
:10015000AD030008AD030008AD030008AD030008BF
:10016000AD030008AD03000800000000000000001F
:10017000000000000000000000000000000000007F
:1001800000000000AD0300080000000000000000B7
:10019000AD03000880B596B000AF00F037F94F4BC3
:1001A0007B6524E07B6D1A1D7A651B683B647B6D63
:1001B0001A1D7A651B68FB637B6D1A1D7A651B68C7
:1001C000BB633B6C7B63FB6B3B63BB6BFB623B6B5F
:1001D000BB6207E07A6B131D7B63BB6A191DB962B2
:1001E00012681A60FA6ABB6A9A42F3D800BF7B6D44
:1001F0003B4A9342D6D33B4B3B651AE03B6D1A1DFD
:100200003A651B68BB643B6D1A1D3A651B687B64CD
:10021000BB6C7B627B6C3B627B6AFB6104E0FB69CD
:100220001A1DFA6100221A603A6AFB699A42F6D8EE
:1002300000BF3B6D2C4A9342E0D300F0F5F83A1D25
:1002400007F108031146184600F0CEF8274A284B5C
:10025000D31A9B103B610023FB6007E0244AFB6834
:1002600052F823309847FB680133FB603A69FB681A
:100270009A42F3DC1F4A204BD31A9B103B610023A8
:10028000FB6007E01C4AFB6852F823309847FB6884
:100290000133FB603A69FB689A42F3DC00BFBB683C
:1002A0007A681146184600F06BF9F864134A144B4B
:1002B000D31A9B10BB61BB697B6108E07B69013B82
:1002C0000F4A52F8233098477B69013B7B617B6979
:1002D000002BF3DC00BFF86C00F080F8B4030008DA
:1002E000CC030008CC030008DC030008DC03000892
:1002F000DC030008DC030008DC030008DC03000862
:10030000DC0300082548004700BF80B400AFFEE7CB
:100310001EF0040F0CBFEFF30880EFF30980714665
:100320001F4A104700BF80B483B000AF78603960C7
:10033000FEE780B400AFFEE71EF0040F0CBFEFF342
:100340000880EFF309807146164A104700BF80B459
:1003500083B000AF78603960FEE71EF0040F0CBF79
:10036000EFF30880EFF3098071460F4A104700BF92
:1003700080B483B000AF78603960FEE780B400AF2E
:10038000FEE780B400AFFEE780B400AFFEE780B4C4
:1003900000AF00BFBD4680BC70470000950100085B
:1003A000270300084F0300087103000880B400AF62
:0203B000FEE766
:1003B400B0080008000000200C000020B00800086D
:1003C40000000010000000100C00002010000020AD
:0803D400000000100000001001
:1003DC0080B582B000AF786000F03CF880B483B098
:1003EC0000AF786039607B6801221A603B68034A71
:1003FC001A6000BF0C37BD4680BC7047000000205F
:10040C0080B500AF00F02AF8024B034A9A6000BF97
:10041C0080BD00BF00ED00E00000000880B500AF1B
:10042C0000F028F800BF80BD80B400AFBFF34F8F41
:10043C0000BF064BDB6803F4E0620449044B134332
:10044C00CB60BFF34F8F00BF00BFFDE700ED00E0B6
:10045C000400FA0580B500AFFFF7E6FF80B400AFEB
:10046C00034B4FF000629A6000BFBD4680BC7047E2
:10047C0000ED00E080B487B000AF00233B610023A7
:10048C007B610223FB600023BB6002237B60344B47
:10049C009B6803F00C033B613B69082B11D03B6953
:1004AC00082B44D83B69002B03D03B69042B04D0A8
:1004BC003DE02C4B2C4A1A603DE02A4B2B4A1A602B
:1004CC0039E0274B5B689B0D03F00103BB60244BA9
:1004DC005B6803F03F037B60BB68002B0CD0234AA6
:1004EC007B68B2FBF3F31E4A52689209C2F308020E
:1004FC0002FB03F37B610BE01B4A7B68B2FBF3F35B
:10050C00174A52689209C2F3080202FB03F37B619B
:10051C00134B5B681B0C03F0030301335B00FB60A4
:10052C007A69FB68B2FBF3F30E4A136003E00D4BE0
:10053C000D4A1A6000BF0A4B9B681B0903F00F039E
:10054C000B4AD35C3B61074B1A683B6922FA03F3F5
:10055C00044A136000BF1C37BD4680BC704700BF07
:10056C0000380240080000200024F40000127A0039
:10057C00A008000880B584B000AF404B1B683F4A10
:10058C0043F0020313603E4B1B683D4A23F04003CB
:10059C0013603B4B1B683A4A43F480631360384B3F
:1005AC001B68374A43F480531360354B1B68344A3D
:1005BC0043F480431360334B1B68324A43F04003CF
:1005CC001360314B1B68304A23F0200313602E4B11
:1005DC001B682D4A23F0400313602B4B1B682A4ADF
:1005EC0023F0800313600023FB730023BB732023D1
:1005FC00FB714023BB7180237B71244B1B6803F080
:10060C000803002B14D00023FB730023BB6002E013
:10061C00BB680133BB60BB681D4A9342F8DD1B4BC2
:10062C001B6803F00803002B1CD00023FB7319E09C
:10063C0097F90E30062B05DD97F90F30002B01D101
:10064C00FF23BB7397F90E30062B0BDC97F90F3099
:10065C00002B07D197F90E30DBB20133DBB2BB7341
:10066C000123FB7397F9053097F9062097F90710CA
:10067C0097F90E0000F00EF8BFE700BF30380240CB
:10068C00000402400C040240040402401004024026
:10069C00FF69180090B482B000AF044608461146BA
:1006AC001A462346FB710346BB710B467B711346FE
:1006BC003B7197F90730002B1BD1754B1B6897F9D1
:1006CC000620D2431146724A0B401360704B1B68D4
:1006DC0097F90520D24311466D4A0B4013606C4BC1
:1006EC001B6897F90420D2431146694A0B401360EA
:1006FC00C9E097F90730012B19D1654B1A6897F9A6
:10070C000630634913430B60614B1B6897F9052056
:10071C00D24311465E4A0B4013605D4B1B6897F940
:10072C000420D24311465A4A0B401360ABE097F9B0
:10073C000730022B19D1564B1B6897F90620D24370
:10074C001146534A0B401360514B1A6897F9053008
:10075C004F4913430B604E4B1B6897F90420D2434F
:10076C0011464B4A0B4013608DE097F90730032B71
:10077C0019D1474B1B6897F90620D2431146444ABE
:10078C000B401360424B1B6897F90520D24311466E
:10079C003F4A0B4013603E4B1A6897F904303C49B2
:1007AC0013430B606FE097F90730042B17D1384BCC
:1007BC001A6897F90630364913430B60344B1A68A4
:1007CC0097F90530324913430B60314B1B6897F98D
:1007DC000420D24311462E4A0B40136053E097F984
:1007EC000730052B17D12A4B1A6897F90630284980
:1007FC0013430B60264B1B6897F90520D243114617
:10080C00234A0B401360224B1A6897F90430204995
:10081C0013430B6037E097F90730062B17D11C4BAD
:10082C001B6897F90620D2431146194A0B401360F6
:10083C00174B1A6897F90530154913430B60144B85
:10084C001A6897F90430124913430B601BE097F9AF
:10085C000730072B15D10E4B1A6897F906300C4947
:10086C0013430B600A4B1A6897F905300849134378
:10087C000B60074B1A6897F90430054913430B605A
:10088C0001E0FF23FB7100BF0837BD4690BC7047E9
:10089C0014040240000000000000000001020304E8
:0408AC00060708092A
:0C08B0000C000020000000000024F400F8
:040000050800019559
:00000001FF
